:020000040000FA
:100000000214E2021B02E47873F222021C30021591
:10001000262222021B5C02C6B12222021C504C4541
:100020005F2222021C05FFFFFFFFFF021C3DFFFFB6
:10003000FFFFFF021C2FD310AF01C3C0D0EFF5E9C3
:10004000EDF5EDEEF5EAECF5EE7402140070FC004F
:10005000E5E9FFE5EAFEE5EBFDE5ECFCD0D092AF8B
:1000600022FFFF021C50E709F608DFFA8046E70985
:10007000F208DFFA803E88828C83E709F0A3DFFA7A
:100080008032E309F608DFFA8078E309F208DFFA44
:10009000807088828C83E309F0A3DFFA8064898210
:1000A0008A83E0A3F608DFFA805889828A83E0A376
:1000B000F208DFFA804C80D280FA80C680D4806952
:1000C00080F28033801080A680EA809A80A880DA4F
:1000D00080E280CA803389828A83ECFAE493A3C8E1
:1000E000C582C8CCC583CCF0A3C8C582C8CCC583A3
:1000F000CCDFE9DEE7800D89828A83E493A3F608EA
:10010000DFF9ECFAA9F0EDFB2289828A83ECFAE0B0
:10011000A3C8C582C8CCC583CCF0A3C8C582C8CC4F
:10012000C583CCDFEADEE880DB89828A83E493A39F
:10013000F208DFF980CC88F0EF60010E4E60C388D2
:10014000F0ED2402B4040050B9F582EB2402B404AB
:100150000050AF23234582239000B673BB0106896C
:10016000828A83E0225002E722BBFE02E3228982D8
:100170008A83E49322BB010CE58229F582E5833A68
:10018000F583E0225006E92582F8E622BBFE06E967
:100190002582F8E222E58229F582E5833AF583E4B7
:1001A0009322BB010689828A83F0225002F722BB88
:1001B000FE01F322F8BB010DE58229F582E5833AC1
:1001C000F583E8F0225006E92582C8F622BBFE0539
:1001D000E92582C8F222EF8DF0A4A8F0CF8CF0A41C
:1001E00028CE8DF0A42EFE22BC000BBE0029EF8D80
:1001F000F084FFADF022E4CCF875F008EF2FFFEEAD
:1002000033FEEC33FCEE9DEC984005FCEE9DFE0FBA
:10021000D5F0E9E4CEFD22EDF8F5F0EE8420D21C15
:10022000FEADF075F008EF2FFFED33FD400798505D
:1002300006D5F0F222C398FD0FD5F0EA22C2D5EC24
:1002400030E709B2D5E4C39DFDE49CFCEE30E71530
:10025000B2D5E4C39FFFE49EFE1201E8C3E49DFD16
:10026000E49CFC80031201E830D507C3E49FFFE45F
:100270009EFE22C5F0F8A3E028F0C5F0F8E582154F
:100280008270021583E038F022A3F8E0C5F025F073
:10029000F0E582158270021583E0C838F0E822BBD1
:1002A000010A89828A83E0F5F0A3E022500687F0F4
:1002B00009E71922BBFE07E3F5F009E31922898259
:1002C0008A83E493F5F074019322BB0110E582293F
:1002D000F582E5833AF583E0F5F0A3E0225009E9E1
:1002E0002582F886F008E622BBFE0AE92582F8E2BC
:1002F000F5F008E222E5832AF583E993F5F0A3E916
:100300009322BB010A89828A83F0E5F0A3F0225090
:1003100006F709A7F01922BBFE06F3E5F009F31969
:1003200022F8BB0111E58229F582E5833AF583E8DD
:10033000F0E5F0A3F0225009E92582C8F608A6F0FE
:1003400022BBFE09E92582C8F2E5F008F222EF2B74
:10035000FFEE3AFEED39FDEC38FC22C3EF9BFFEED9
:100360009AFEED99FDEC98FC22E88FF0A4CC8BF07E
:10037000A42CFCE98EF0A42CFC8AF0EDA42CFCEA61
:100380008EF0A4CDA8F08BF0A42DCC3825F0FDE99B
:100390008FF0A42CCD35F0FCEB8EF0A4FEA9F0EB91
:1003A0008FF0A4CFC5F02ECD39FEE43CFCEAA42D9D
:1003B000CE35F0FDE43CFC22EF5BFFEE5AFEED593A
:1003C000FDEC58FC22EF4BFFEE4AFEED49FDEC48F8
:1003D000FC22EF6BFFEE6AFEED69FDEC68FC22CFBC
:1003E000F4CFCEF4CECDF4CDCCF4CC22EB9FF5F00F
:1003F000EA9E42F0E99D42F0E89C45F022E8600F59
:10040000ECC313FCED13FDEE13FEEF13FFD8F12246
:10041000E86010ECA2E713FCED13FDEE13FEEF1302
:10042000FFD8F022E8600FEFC333FFEE33FEED3369
:10043000FDEC33FCD8F122E0FCA3E0FDA3E0FEA339
:10044000E0FF22E2FC08E2FD08E2FE08E2FF22E40F
:1004500093FC740193FD740293FE740393FF22E0F6
:10046000F8A3E0F9A3E0FAA3E0FB22E2FB08E2F93B
:1004700008E2FA08E2CBF822ECF0A3EDF0A3EEF0EC
:10048000A3EFF022ECF208EDF208EEF208EFF22210
:10049000A8828583F0D083D0821204A71204A71209
:1004A00004A71204A7E473E493A3C583C5F0C5832E
:1004B000C8C582C8F0A3C583C5F0C583C8C582C8B6
:1004C00022A42582F582E5F03583F58322E0FBA3A3
:1004D000E0FAA3E0F922F8E0FBA3A3E0F925F0F0AD
:1004E000E582158270021583E0FA38F022EBF0A362
:1004F000EAF0A3E9F022E2FB08E2FA08E2F922EBD3
:10050000F208EAF208E9F222E493FB740193FA7428
:100510000293F922D083D082F8E49370127401938D
:10052000700DA3A393F8740193F5828883E4737428
:1005300002936860EFA3A3A380DFD083D082F8E4A6
:10054000937012740193700DA3A393F8740193F543
:10055000828883E473740293B5F006740393686031
:10056000E9A3A3A3A380D8D083D082E493701274AC
:100570000193700DA3A393F8740193F5828883E42B
:10058000737402936C70127403936D700C74049303
:100590006E70067405936F60DDA3A3A3A3A3A3806D
:1005A000CA8A838982E4738F468D47E478CDF20846
:1005B000E5A5F275F0D0EF123ACCAF82FE78CBF21F
:1005C00008EFF28E83E07009E547640260030208D9
:1005D000A4E547640B603AE5476404603490D2991F
:1005E000E0FEA3E0FFF5828E83A3E0B546148F8280
:1005F0008E83E030E10C90D299A3E0F5828E837473
:1006000004F075A501AF4612B44778CEE2F5A5C255
:1006100023E5476404600B75A507AF4612E34AE47F
:10062000F5A575A507AF4612E34A78CEE2F5A578A1
:10063000CBE2FE08E2FF2444F582EE3401F583E4C8
:10064000F08F828E83E0FF30E30F18E2FC08E2F5C2
:10065000828C83EF54F7F0801B78CBE2FE08E2F542
:10066000828E83E030E50D75A507AF4612B8887815
:10067000CEE2F5A57B06AD467FFF1216787B06AD70
:10068000467F3E1220907B06AD467F3F1220909021
:10069000DE4EE0B401031237CAAF46123C16E547FE
:1006A00064047003020885E546C394024003020710
:1006B000CF74C82546F582E43491F583E4F0123A0C
:1006C000C4F583E0700D9091C7F0C2AF9091E5E062
:1006D00054FEF078CD7401F230260E9091E5E020C2
:1006E000E0077D817F0A12338230575E9091E5E00A
:1006F000FF20E30330E253EF5403704EE547640BF1
:1007000060209091E5E030E30975A5077B027D84C8
:10071000802E9091E5E030E23175A5077B027D885F
:10072000801E9091E5E030E30975A5077B027D040A
:10073000800E9091E5E030E21175A5077B027D08FF
:100740007F1712EDCF78CEE2F5A5E547640B601078
:10075000203C0D20260A2057079091E1E054FCF040
:10076000D2AFE54675F014A42447F582E434D9F5F8
:1007700083E4F0748E2546F582E43493F583E4F047
:10078000E54675F005A42427F582E434D9F583E025
:1007900054FEF0785EE254FEF2303C1BE546640104
:1007A0004480FD7F10123382123AC4F583E054284E
:1007B0007003020885800F9091DB12049000000006
:1007C00000E49091DAF078BFE254EFF2020885E499
:1007D000F548F54978CA7402F27859E2FF78CAE21E
:1007E000FED39F502875F0D0EE908A871204C1EE98
:1007F0002583F583E0FF544660020548EF54C66048
:100800000578CAE2F54978CAE204F280CC7859E565
:1008100049F2E5487039C2AF9091E5E054FDF078B7
:10082000CD7401F2303C04C226E4F23026097D8208
:100830007F0A123382800E9091E5E020E0079091CC
:10084000E1E054FCF0D2AF785EE254FBF2800EE5BA
:1008500048C39402500790D9BCE054FEF090D944AC
:10086000E0702290D933F090BC22E0547FF0C22196
:10087000E490D970F090D2CDF090D2B3F090DE81B8
:10088000F090D2B7F09091E1E0700F75A50712B922
:10089000D078CEE2F5A5187401F278CDE260057F3C
:1008A00001123C862275A50712FA2B12F2C475A517
:1008B0000612F5DD781FE6B4AA05758E12806675FE
:1008C0008E01300060E490985FF0A3F090A4F5E012
:1008D00030E0177F081237A790985FEEF0A3EFF093
:1008E000EE548090985FF0A3E4F090985FE070027F
:1008F000A3E07031781FE620E30690DD6D7401F00F
:100900001239F3C390DDC4E094C290DDC3E09401DA
:100910005013909BF3E0544FF0E0FCA3E0FD7F0107
:1009200012378480FEE4F5A5123AD6781FE664AA51
:10093000706790BD03F075A50590B203F090B00606
:1009400004F0A3E04401F07E047FD07C507D007B66
:10095000007A0112373D12BCA97E047FD07B327A27
:10096000007D007C0612359DE4F56B12367BFEA3FC
:10097000E04E60139004E612367EFF12367BFCA335
:10098000E0F5828C83EFF0056BE56BB40ADDE49053
:10099000BF00F075A50512CDF930050BE490BD033D
:1009A000F075A50212B5E212275075A50612F18C5A
:1009B00030002B909EB3E030E22475A50790BE2A4C
:1009C000E01490DDE4F0909FAEE00490DDE6F0905E
:1009D0009FAFE00412368812AFADE4123688E4F51A
:1009E000A51220F6300503020A9575A50412A80A7F
:1009F000200003020A95909EB1E030E00675A50440
:100A000012C50275A50712C9FA909EB3E030E20341
:100A100012AFAD75A501909F74E07014909EAEE08A
:100A200020E30D909EB2E020E106909FDEE0601092
:100A30009086B6E06007909EAEE030E30312FB8242
:100A400075A506909FD5E030E40312BAB2909EAE31
:100A5000E030E50312B86612C700909FD6E030E799
:100A60000312C521909EB3E030E20312F3CB909FB6
:100A7000FDE030E60312E7E1909EB4E030E60312B9
:100A8000B365909EB4E030E50312CF4012E250759A
:100A9000A50612E610E5D630E505E490BD0CF0752C
:100AA000A506126907E4F5A57894E2707590DCCE8E
:100AB000E0600AE4F090A81404F000806590A818A3
:100AC000E090985DF0E020E05990AA0BE020E4521D
:100AD00090DCD3E0B4011CE4F0123695E4F0EF248E
:100AE00008F582E43EF583E0FFA3E090D293CFF0D7
:100AF000A3EFF0123695E0B4012890DCD37401F036
:100B00008F828E83A3A3A3E0FFA3E090AA32CFF04D
:100B1000A3EFF090AA1CE4F0A3743CF090AA0B742D
:100B200010F03005030209E175A50612E434E4F57E
:100B3000A5909E1EE030E00975A50112FB70E4F55A
:100B4000A5E51260030209E1909E46E0540F60148F
:100B500075A50112D68190985EEFF0E4F5A5EF60DF
:100B6000030209E1909E46E054F070030209E1E5BA
:100B70001260030209E190D9A9E060030209E1E5EE
:100B80008754FC4401F58700000209E18E4F8F5025
:100B90008F828E83E5822404F582E43583F583E039
:100BA000147003020CB7046003020E30783EE2FEBC
:100BB00008E2F5828E83A3A3E0FEA3E0FF7838E28B
:100BC000FC08E2FDD3EF9DEE9C4003020C7712205F
:100BD000198E4F8F50783EE2FE08E2FF2405F58221
:100BE000E43EF583E0FDE5502404F582E4354FF55D
:100BF00083EDF0EF2406F582E43EF583E0FFE55057
:100C00002405F582E4354FF583EFF018E2FE08E2A3
:100C10002404F582E43EF583E0FFAD50AC4F121F93
:100C2000E6783EE2FE08E2FFF5828E83A3A3E0FCB5
:100C3000A3E0FDC37839E29DF218E29CF28F828E28
:100C400083E0FEA3E0FF7835E2FC08E2FD783EE2B7
:100C5000FA08E2FBF5828A83ECF0A3EDF07835EA3E
:100C6000F208EBF2783EEEF208EFF2EF4E6003028C
:100C70000BAC7838F208F27838E2FE08E2FF4E60FA
:100C80002E783EE2FC08E2F5828C83A3A3C083C0E9
:100C900082C3A3E09FFF0582D5820215831582E0FF
:100CA0009ED082D083F0A3EFF0E47838F208F2E42B
:100CB0007834F2121FF722E5502405F582E4354F0F
:100CC000F583E0F55225E02430F874FFF208F27461
:100CD000422552F874FFF2E4F551E552C454F02471
:100CE00006F582E434D7F58375F004E5511204C1AA
:100CF000E064016003020E0FE552C454F02407F5CE
:100D000082E434D7F58375F004E5511204C1E0FEA6
:100D1000A3E0FFE55225E0243CF8E2FC08E2FDD325
:100D2000EF9DEE9C504F1220198E4F8F508F828E68
:100D300083E5822404F582E43583F583E552F08F60
:100D4000828E83E5822405F582E43583F583E551BF
:100D5000F0AD50AC4F7F02121FE6E552C454F024B0
:100D600006F582E434D7F58375F004E5511204C129
:100D7000E4F0020E0FE552C454F02407F582E43487
:100D8000D7F58375F004E5511204C1C083C082E534
:100D90005225E0243CF8E2FE08E2FFC3A3E09FFFF7
:100DA0000582D5820215831582E09ED082D083F021
:100DB000A3EFF0E552C454F02407F582E434D7F5EC
:100DC0008375F004E5511204C1E0FEA3E0FFE55293
:100DD00025E02430F8E2FC08E2FDC3EF9DEE9C50D4
:100DE0002E74422552F8E551F2E552C454F024071E
:100DF000F582E434D7F58375F004E5511204C1E0BF
:100E0000F8A3E0FFE55225E02430C8F208EFF20530
:100E100051E551C394045003020CDAE55225E02455
:100E20003CF8E4F208F274372552F8E4F2121FF7A6
:100E30002250DF1800000000000000000000000049
:100E40000000000042DF74000046DF6E000000007A
:100E50000000021C000041DFCD0041284B0041256D
:100E60007E0042DE140000418190004186B0824144
:100E7000DDC10541DD710041DFBA0041D017014DF0
:100E8000DD461E19140F0A0500FBF6F1ECE7E241FE
:100E9000DD450641DD59066050D85F4000437A4782
:100EA0003C4B164FB05582598C5ECE624866226923
:100EB0009C6C6E70A873F277FC7BBE80A085228A42
:100EC000348EE69278944295C499CE9C889F2AA24B
:100ED000D4A636A8F0ABAAAE7CB14EB468B73AB986
:100EE000DCBCDEBFE0C2E2C584C86E6028D837CC67
:100EF00092CE8CD03ED1C0D342D4C4D6BED888DAEC
:100F00000ADB5CDD0EDE30DF9AE0BCE1F6E360E494
:100F1000CAE604E786E8A86050D8AF400042A24481
:100F20008448D64DD052B257C45D1E611065AA6B7D
:100F30001C6F9E74E0791A7DB481EE847888CA8D26
:100F40004C919E9590972A99249C3E9F28A22AA571
:100F5000D4A91EAB90AE4AB11CB4C6B900BC02BF46
:100F600004C1D6C538C852CC8CCFEE6028D8FFD487
:100F70008AD63CD7A6D958DAC2DC5CDE26DFC0E1CF
:100F80008AE30CE4A6E670E792E914EA66EBD0ED9A
:100F90006AEF1CF0B6F2386032DCD42603530069E5
:100FA000006D0070006C006500200048004900449E
:100FB00000200044006500760069006300650020A1
:100FC0000000000000000000000000000041DDB74C
:100FD0000142DA7B000041CEA600008F828E83E0C2
:100FE000FCA3E0FDFBAA044A60118D828C83E0FD26
:100FF000A3E08F828E83CDF0A3EDF0AE02AF03228B
:10100000353530365F4455414C5F53504B004215E7
:101010000001000001E4F530305E54789CE2704C31
:1010200004F290AA5FE0F52F789EF224FE601C0483
:1010300070327A0079A378A37C007DFE7B017AAAC6
:1010400079607E007F0412013680247A0079A378CB
:10105000A37C007DFE7B017AAA79647E007F041266
:101060000136800BE4789CF2800580037530012006
:101070005F030211CC789CE2640160030211CC781A
:101080009EE224FE70030211180460030211B57879
:101090009DE225E02474F582E434DCF583E0FEA3D0
:1010A000E0FF78A9EEF2FA08EFF2FBAA0EAB0F18F8
:1010B000E2FE08E2FF2404F582E43EF5837421F0A9
:1010C000789FE2FC08E2FDEF2406F582E43EF5831A
:1010D000ECF0A3EDF078A3E2FC08E2FD08E2FE08E4
:1010E000E2FFEB2409F582E43AF58312047878A84C
:1010F000E26401F225E02431F582E43421F583E055
:10110000FEA3E0FF789FEEF2FE08EFF2FF90AA9AAE
:10111000EEF0A3EFF00211B5789DE225E02474F51E
:1011200082E434DCF583E0FEA3E0FF78A9EEF2FE72
:1011300008EFF2FF786BE2FC08E2FD2407F582E499
:101140003CF583E0FBEF2405F582E43EF583EBF00C
:10115000ED2408F582E43CF583E0FEA3E0FF18EE01
:10116000F2FE08EFF24E7008187493F2087416F24B
:10117000786BE2FE08E2F5828E83A3A3A3E0FEA3D0
:10118000E090AA7BF0EE90AA7AF078A9E2FA08E261
:10119000FB2404F582E43AF5837422F078A3E2FCA0
:1011A00008E2FD08E2FE08E2FFEB2409F582E43ADA
:1011B000F583120478E4789CF278A9E2FC08E2FD59
:1011C0007F04122200789DE2045407F2E530604B60
:1011D000789C7401F290AA5FE0F52F789EF224FECD
:1011E000601C0470327A0079A378A37C007DFE7BBA
:1011F000017AAA79607E007F04120136801D7A0090
:1012000079A378A37C007DFE7B017AAA79647E00B5
:101210007F041201368004E4789CF2305D36789DBC
:10122000E225E02474F582E434DCF583E0FFA3E0FA
:1012300078A9CFF208EFF218E2FC08E2FD2404F5E9
:1012400082E43CF5837440F07F04122200789DE232
:10125000045407F2E52D5478FFE52B541B4F60171B
:10126000E52B30E106781F76208004781F7610E4A5
:1012700090BD03F012000E306A0312269922752FDA
:101280000190BF3374FFF090BF12E0F52CA3E0F59E
:101290002B206303021367909DB3E0FEA3E0F58269
:1012A0008E83E0FB30E12D90BE27E030E01790BE4A
:1012B00000120490FFFFFFFF90BE13E04420F09067
:1012C000DF7E7401F0909DB3E0FEA3E0F5828E8393
:1012D000EB54FDF0909C87E07004A3E0640170146F
:1012E00090BA23F07431F090B4697420F0E4909CCB
:1012F00087F0A3F0909C64E0FF30E12554F5FFBF38
:10130000611F90BE27E030E01190BE00120490FFF4
:10131000FFFFFF90BE13E04420F0909C64E0448007
:10132000F078A2E225E02453F582E434DCF583E092
:10133000FEA3E0FF78A9EEF2FE08EFF2FF2406F527
:1013400082E43EF583E52BF0EF2407F582E43EF5D9
:1013500083E52CF018E2FC08E2FD7F0212220078FF
:10136000A2E2045407F222303E0753A4FEC23EC25A
:101370001F78A2E225E02453F582E434DCF583E013
:10138000FEA3E0FF78A9EEF2FE08EFF2FF2406F5D7
:1013900082E43EF583E52BF0EF2407F582E43EF589
:1013A00083E52CF0305E02D23A20580302149AD220
:1013B0003690BE27E0785FF290BC1B7401F0785A3B
:1013C000E2700302149AE4F290B85FE0640460F8FB
:1013D000E0640560F390BF43E020E20302149A90BA
:1013E00093BEE0FEA3E0F5828E83A3E0FF90B82BCE
:1013F000E054076F600302149A90BF23E054BFF0DB
:1014000090BF337440F090BE27E0785FF2E2FF9027
:10141000BA0BE0C39F04FF3395E0FEFDFC90BE00D5
:1014200012047890BE13E04420F090B82BE054787A
:10143000F530D2186470602FE53064786029E530AB
:1014400064506023E5306458601D90BE17E044028C
:10145000F00000000090BE03E0440190BA03F09059
:10146000BA237401F0D230E530600D64086009D20F
:101470003790BF23E04410F090BF13E0F53090BFE9
:1014800023E04440F0303A1278A9E2FE08E2240654
:10149000F582E43EF583E054BFF0305C2D30182A2D
:1014A000E519241AF582E43518F5837401F0E51B7B
:1014B000241AF582E4351AF583E0FF90B81AE05457
:1014C000FEFEEF4EF0305D02D238E52F601378A9B2
:1014D000E2FC08E2FD7F0212220078A2E204540737
:1014E000F22243A110D2A4C2A490BD147401F0E46E
:1014F000F00000000000000000000090BF00E4F0D9
:1015000090A4B07400F090A4B174C8F090A4B27428
:1015100001F090A4B37480F090BD10E05407781FE0
:10152000F6752000D20643A110D2A4C2A4D2A4C250
:10153000A490BF00E4F090BF007403F075A500759F
:10154000D00078FF79DFE4F618D9FC781EF6D8FDD4
:1015500075A4045387DF43A30453A3F7C282D28246
:101560000000308354C282000020834DD2820000EC
:10157000308346C282000020833FC20153A3FD5343
:10158000A2DF53A17F30810F30950C20A709D20133
:101590007480781FF6802253A1EE00000000000046
:1015A000000030A40C20A009D2017480781FF680BE
:1015B0000874AA781FF602163353A3FE75A70078A5
:1015C000007F00E4F208DFFC9001007F007E9DE4D4
:1015D000F0A3DFFCDEFA90C0007F007E20E4F0A3E1
:1015E000DFFCDEFA751E0090000078107455F0A341
:1015F000D8FC7581FF0216330208A5E493A3F8E432
:1016000093A34003F68001F208DFF48029E493A35A
:10161000F85407240CC8C333C4540F4420C8834073
:1016200004F456800146F6DFE4800B010204081042
:10163000204080900E31E47E019360BCA3FF543FB4
:1016400030E509541FFEE493A360010ECF54C0257A
:10165000E060A840B8E493A3FAE493A3F8E493A36A
:10166000C8C582C8CAC583CAF0A3C8C582C8CAC5CE
:1016700083CADFE9DEE780BEAA07A90590D4B3E0FC
:10168000FDA3E0909825CDF0A3EDF0E4A3F0A3F046
:10169000909825E0FCA3E0FD4C700302180AED24AD
:1016A00004F582E43CF583E06B60030217E990984F
:1016B00025E0A3E02406F582E43CF583E0696003BD
:1016C0000217E9ED2405F582E43CF583E06A600742
:1016D000EAF460030217C8909825E0FCA3E0FDF54A
:1016E000828C83E0F8A3E0F58288834583601F8DB8
:1016F000828C83A3A3E0FEA3E0FF8D828C83E0FCB9
:10170000A3E0F5828C83A3A3EE8FF012027390986E
:1017100027E07002A3E0704D909825E0FEA3E0FF63
:10172000F5828E83E0FDA3E090D4B3CDF0A3EDF07D
:1017300090D595E0FDA3E08F828E83CDF0A3EDF0F0
:10174000909825E0FFA3E090D595CFF0A3EFF0901F
:10175000D4B3E0FFA3E0909825CFF0A3EFF0E4A38B
:10176000F0A3F08058909825E0FEA3E0F5828E83E8
:10177000E0FEA3E0FF909827E0FCA3E0F5828C83D5
:10178000EEF0A3EFF090D595E0FEA3E0FF90982552
:10179000E0FCA3E0FDF5828C83EEF0A3EFF090D5A2
:1017A00095ECF0A3EDF0909827E0FEA3E0F5828E93
:1017B00083E0FFA3E0909825CFF0A3EFF0EAF47068
:1017C0000302169022021690909825E0FEA3E0FFF7
:1017D000A3EEF0A3EFF0F5828E83E0FFA3E09098F4
:1017E00025CFF0A3EFF0021690909825E0FEA3E03D
:1017F000FFA3EEF0A3EFF0F5828E83E0FFA3E0906D
:101800009825CFF0A3EFF0021690228E398F3A8FF1
:10181000828E83E5822404F582E43583F583E02417
:10182000FE601F14700302192914700302195F244B
:1018300003600302198B7B007A04E4FD7F0212200F
:101840007F2290D4B3E0FEA3E0FF4E700302191391
:101850008F828E83A3A374FFF5F012027390D4B32A
:10186000E0FEA3E0F5828E83A3A3E0FEA3E04E603A
:10187000030219131220198E398F3A90D4B3E0FE67
:10188000A3E0FF2405F582E43EF583E0FDE53A247C
:1018900004F582E43539F583EDF0EF2406F582E4B2
:1018A0003EF583E0FFE53A2405F582E43539F5831A
:1018B000EFF090D4B3E0FEA3E02404F582E43EF51B
:1018C00083E0FFAD3AAC39121FE690D4B3E0FEA33B
:1018D000E0FFF5828E83E0FCA3E08C3BF53C90D5E5
:1018E00095E0FDA3E08F828E83CDF0A3EDF090D440
:1018F000B3E0FFA3E090D595CFF0A3EFF090D4B381
:10190000E53BF0A3E53CF0453B600302185D800336
:1019100002185D90D4B3E07002A3E0606E7B007AA1
:1019200004E4FD7F0212207F22E53A2406FFE4351D
:1019300039FAA9077B01900001120175FF9000029E
:10194000120175FD9000031202CAFBAAF0E53A24C9
:1019500006F582E43539F583E0F54E12198C22E55F
:101960003A2406FFE43539FAA9077B0190000112F9
:101970000175FF900002120175FDE53A2406FBE4B3
:1019800035398B82F583E0FB121678228F4A8D4B16
:101990008A4C8B4DE54D454C7003021B0190D4B32E
:1019A000E07002A3E070231220199097C1EEF0A31B
:1019B000EFF09097C1E0FCA3E0FD2404F582E43C45
:1019C000F5837401F07F07121FE6AB4EAD4BAF4AB3
:1019D00012167890D4B3E0FFA3E09097C3CFF0A3A2
:1019E000EFF0E4A3F0A3F09097C3E0FEA3E0FF4E76
:1019F00060478F828E83A3A3E0FEA3E0FFC3954DD3
:101A0000EE954C50349097C3E0FCA3E0FDC3E54D48
:101A10009FF54DE54C9EF54CA3ECF0A3EDF09097AF
:101A2000C3E0FEA3E0F5828E83E0FFA3E09097C3BE
:101A3000CFF0A3EFF080B080AE90D595E0FEA3E0AC
:101A4000FFF5828E83A3A3E54CF0A3E54DF0EF24D0
:101A500004F582E43EF583E54EF0EF2405F582E4DB
:101A60003EF583E54AF0EF2406F582E43EF583E592
:101A70004BF09097C5E0FEA3E0FF4E701190D59516
:101A8000E0FDA3E090D4B3CDF0A3EDF0801090D5AD
:101A900095E0FDA3E08F828E83CDF0A3EDF090D58D
:101AA00095E0FEA3E0FFF5828E83E0FDA3E0909732
:101AB000C5CDF0A3EDF09097C3E0FCA3E0FD8F82CD
:101AC0008E83ECF0A3EDF08D828C83A3A3C083C042
:101AD00082C3A3E0954DFF0582D58202158315824E
:101AE000E0954CD082D083F0A3EFF09097C5E0FE54
:101AF000A3E0FF90D595EEF0A3EFF04E7003123EF9
:101B00007122C0D0C0E0303E2A53A4DF90B203E07F
:101B1000547FF090B207E020E7F9000030071490FE
:101B2000BF83E054FDF090DF58E0F58E90BF83E076
:101B30004401F0C0F0C092C083C082C085C08475EB
:101B4000D00875920012127E300F41D084D085D01B
:101B500082D083D092D0F0D0E0D0D032C0D0C0E0DC
:101B6000C0F0C092C083C082C085C08475D00875A3
:101B700092001234DC200503300E11D084D085D0C1
:101B800082D083D092D0F0D0E0D0D03275D000C0D7
:101B9000A5C000C001C002C003C004C005C006C08B
:101BA0000775A500200E2F74B0C0E0741BC0E03292
:101BB0001225C2D007D006D005D004D003D002D061
:101BC00001D000D0A5D084D085D082D083D092D04F
:101BD000F0D0E0D0D02274DFC0E0741BC0E032123D
:101BE0002D1FD007D006D005D004D003D002D001DD
:101BF000D000D0A5D084D085D082D083D092D0F030
:101C0000D0E0D0D022C0D0C0E0C0F0C092C083C02D
:101C100082C085C08475D008759200122AD0D08405
:101C2000D085D082D083D092D0F0D0E0D0D03232E4
:101C3000C000C0E0C0D0D0D0D0E0D00032C0D010C2
:101C4000C6028009200204B2A08002B283D0D03242
:101C5000328E328F337839E22533F218E23532F2A0
:101C600074FFF537F538E4F53474422534F8E2B4FE
:101C7000FF0EE53425E0243CF8E4F208F2021D01F1
:101C8000E53425E0243DF8E22533F218E23532F25E
:101C900074372534F8E27069E53425E0243CF8E235
:101CA000FE08E2FFE53425E02431F9D3E39F19E390
:101CB0009E5020E53425E02440F8E2FC08E2FD7F58
:101CC0000112220074372534F87401F2E4F537F577
:101CD00038802EE53425E0243CF8E2FE08E2FFE5FA
:101CE0003425E02431F8C3E29FF53618E29EF5353D
:101CF000C3E5369538E53595375006853537853651
:101D0000380534E534C394015003021C697832E588
:101D100037F208E538F208E2706F783EE2FE08E23A
:101D2000FF4E605F8F828E83A3A3E0FEA3E0FF7867
:101D300038E2FC08E2FDD3EF9DEE9C501108E2FC76
:101D400008E2FD7F0112220078347401F222783E0D
:101D5000E2FE08E2F5828E83A3A3C083C0827838B6
:101D6000E2FE08E2FFC3A3E09FFF0582D5820215D1
:101D7000831582E09ED082D083F0A3EFF0E418F2C6
:101D800008F222E47838F208F222AA07A905783E80
:101D9000E2FC08E28C14F515E4F516F517E5154597
:101DA000147003021EBDE5152404F582E43514F514
:101DB00083E06B6003021EA6E5152406F582E43578
:101DC00014F583E0696003021EA6E5152405F5827B
:101DD000E43514F583E06A6007EAF46003021E8FBD
:101DE000851582851483E0FCA3E0FD4C6019851401
:101DF00083851582A3A3E0FEA3E0FF8D828C83A3DD
:101E0000A3EE8FF0120273E5174516703B8515821D
:101E1000851483E0FFA3E0783ECFF208EFF2783537
:101E2000E2FF08E2851582851483CFF0A3EFF01856
:101E3000E514F208E515F2783EE2FE08E28E14F5AC
:101E400015E4F516F517803C851582851483E0FFAF
:101E5000A3E0851782851683CFF0A3EFF07835E2F3
:101E6000FF08E2851582851483CFF0A3EFF018E513
:101E700014F208E515F2851782851683E0FEA3E0CB
:101E80008E14F515EAF47003021D9D22021D9D8536
:101E90001416851517851582851483E0FEA3E08E40
:101EA00014F515021D9D8514168515178515828557
:101EB0001483E0FEA3E08E14F515021D9D228F32DF
:101EC0008D338A348B357829E2FB121D8AE535453E
:101ED000347003021FE5783EE2FE08E28E14F51529
:101EE000E4F516F5177838E2FE08E22535F535EE0B
:101EF0003534F534E515451460388515828514832D
:101F0000A3A3E0FEA3E0FFD39535EE95345023C3A1
:101F1000E5359FF535E5349EF5348514168515179E
:101F2000851582851483E0FEA3E08E14F51580C428
:101F300080C27835E2FE08E2FFF5828E83A3A3E536
:101F400034F0A3E535F07829E2FDEF2404F582E4CE
:101F50003EF583EDF07835E2FE08E2FF2405F582D8
:101F6000E43EF583E532F0EF2406F582E43EF583A6
:101F7000E533F0E51745167009783EEEF208EFF20A
:101F8000800B851782851683EEF0A3EFF07835E29B
:101F9000FE08E2FFF5828E83E0FCA3E08C16F517C5
:101FA0008F828E83E514F0A3E515F0451460268535
:101FB0001582851483A3A3C083C082C3A3E0953593
:101FC000FF0582D5820215831582E09534D082D038
:101FD00083F0A3EFF07835E516F208E517F2451621
:101FE0007003123E7122748055A87003022200C251
:101FF000AF122200D2AF22748055A87003022DECDC
:10200000C2AF122DECD2AF22748055A87003022EFD
:102010009CC2AF122E9CD2AF22748055A8700302CE
:102020003507C2AF123507D2AF22748055A87003AE
:10203000023531C2AF123531D2AF22748055A8704B
:102040000302355BC2AF12355BD2AF22748055A854
:102050007003023243C2AF123243D2AF22748055B2
:10206000A87003023279C2AF123279D2AF227480E3
:1020700055A870030232AFC2AF1232AFD2AF227492
:102080008055A87003021EBEC2AF121EBED2AF2280
:10209000748055A87003021D8AC2AF121D8AD2AF88
:1020A00022748055A87003021C51C2AF121C51D279
:1020B000AF22748055A870030224D9C2AF1224D96C
:1020C000D2AF22748055A87003022BC6C2AF122B68
:1020D000C6D2AF22748055A8700302314FC2AF122E
:1020E000314FD2AF22748055A87003020FDBC2AF0C
:1020F000120FDBD2AF22C2AFE51270030221F790BC
:102100003E6293F521300A4C7823E2FE08E2FFF5A7
:10211000828E83A3A3A3E07829F2E4782DF2D2AFD4
:102120007829E2FD33333354F8FD90280193F5A567
:1021300074FD2DF582E43427F583E493740193FA5A
:10214000740293F5828A831205A5E4F5A5C2AF1245
:10215000204C80A430094D782AE2FE08E2FFF58287
:102160008E83A3A3A3E07829F2E47819F2D2AF78A2
:1021700029E2FD33333354F8FD90280193F5A5741B
:10218000FD2DF582E43427F583E493740193FA740A
:102190000293F5828A831205A5E4F5A5C2AF122049
:1021A0005D0220F82008030220F8781AE2FE08E217
:1021B000FFF5828E83A3A3A3E07829F2E47820F2CE
:1021C000D2AF7829E2FD33333354F8FD90280193E0
:1021D000F5A574FD2DF582E43427F583E4937401AD
:1021E00093FA740293F5828A831205A5E4F5A5C2D9
:1021F000AF12206E0220F8E47829F2F521D2AF2246
:102200008D828C83A3A3A3EFF033333354F890284B
:1022100000931460541470030222B024026003027D
:1022200022F6E51070107823ECF208EDF27825EC38
:10223000F208EDF280257825E2FE08E2F5828E8331
:10224000ECF0A3EDF018ECF208EDF2782DE2B40119
:102250000A7402F27827ECF208EDF205104312043A
:102260008D828C83E4F0A3F022E5117010782AECC3
:10227000F208EDF2782EECF208EDF28025782EE2ED
:10228000FE08E2F5828E83ECF0A3EDF018ECF20884
:10229000EDF27819E2B4010A7402F27817ECF20850
:1022A000EDF205114312028D828C83E4F0A3F0223B
:1022B000E5137010781AECF208EDF2781CECF208D5
:1022C000EDF28025781CE2FE08E2F5828E83ECF0C8
:1022D000A3EDF018ECF208EDF27820E2B4010A74F4
:1022E00002F2781EECF208EDF205134312018D8222
:1022F0008C83E4F0A3F022E4F56CE56C75F007A4A0
:102300002473F582E434D6AF82FEE56C75F007A441
:10231000246CF582E434D6F583EEF0A3EFF0056C7F
:10232000E56CB415D5E490D6FFF0A3F0783574D6FB
:10233000F208746CF2E4783EF208F27834F27838FD
:10234000F208F2122019783AEEF208EFF22404F5BE
:1023500082E43EF583E4F0F56CE4F56DE56CC4547D
:10236000F02406F582E434D7F58375F004E56D12A8
:1023700004C1E4F0056DE56DB404E1E56C25E024ED
:1023800030F874FFF208F27442256CF874FFF2E53D
:102390006C25E0243CF8E4F208F2122019E56C25E3
:1023A000E02440F8EEF208EFF2E56C25E02440F876
:1023B000E2FE08E22404F582E43EF5837401F0E5D0
:1023C0006C25E02440F8E2FE08E22405F582E43EB4
:1023D000F583E56CF074FF7832F208F2056CE56C79
:1023E000C39401500302235922781474C6F208746E
:1023F000A0F2E4FF75F00AEFA424AAF582E5F03418
:10240000C6AD82FC75F00AEFA424A0F582E5F03495
:10241000C6F583ECF0A3EDF075F00AEFA424A2F565
:1024200082E5F034C6F5837401F00FBF5FC6E49017
:10243000CA56F0A3F0A304F0781074C0F208740038
:10244000F2E4FF75F00EEFA4240EF582E5F034C03F
:10245000AD82FC75F00EEFA42400F582E5F034C0E7
:10246000F583ECF0A3EDF075F00EEFA42402F582F5
:10247000E5F034C0F5837402F00FBF5FC6E490C589
:1024800032F0A3F0A37402F0781274C5F20874401D
:10249000F2E4FF75F016EFA42456F582E5F034C59A
:1024A000AD82FC75F016EFA42440F582E5F034C54A
:1024B000F583ECF0A3EDF075F016EFA42442F5825D
:1024C000E5F034C5F5837403F00FBF0FC6E490C682
:1024D0008AF0A3F0A37403F0228F5C8D5D8A5E8B7B
:1024E0005FE55F455E70030225C1E55C25E0243CA5
:1024F000F8E2FE08E2255FF55FEE355EF55EE55D2C
:1025000025E025E0FFE55CC43354E02F7E0024067F
:10251000FFEE34D7FE8F82F5837401F0A3E55EF001
:10252000A3E55FF07442255CF8E2FDB4FF12E55DBF
:10253000F2E55C25E02430F8E55EF208E55FF22282
:10254000E55C25E02431F9D3E3955F19E3955E401E
:1025500017E55C25E02430F8E55EF208E55FF274EB
:1025600042255CF8E55DF222ED655D7054E55CC4E2
:102570003354E07E002406FFEE34D7FEE4FD8F8264
:102580008E83E0601BA3E0FAA3E0C3955FEA955E4B
:10259000500E8D5D8F828E83A3E0F55EA3E0F55F24
:1025A00074042FFFE43EFE0DBD04D3E55C25E0245A
:1025B00030F8E55EF208E55FF27442255CF8E55D0F
:1025C000F222C2AF7829E27816F27822E521F2E50C
:1025D00012D39401500302268B7E00E51254FE2490
:1025E00062F582EE343EF583E493F521300A4C78AF
:1025F00023E2FE08E2FFF5828E83A3A3A3E07829FD
:10260000F2E4782DF2D2AF7829E2FD33333354F877
:10261000FD90280193F5A574FD2DF582E43427F58E
:1026200083E493740193FA740293F5828A8312050A
:10263000A5E4F5A5C2AF12204C8094300991782A08
:10264000E2FE08E2FFF5828E83A3A3A3E07829F2DD
:10265000E47819F2D2AF7829E2FD33333354F8FD30
:1026600090280193F5A574FD2DF582E43427F583B8
:10267000E493740193FA740293F5828A831205A598
:10268000E4F5A5C2AF12205D0225CF7816E27829C5
:10269000F27822E2F521D2AF22909E1EE020E109DD
:1026A00090DFCDE0700302274390A622E0FEA3E076
:1026B000FFC390A627E09FFF90A626E09E902137BB
:1026C000F0A3EFF090213BE0FEA3E0FF902137E084
:1026D000FCA3E0FD6F7002EC6E605BE490213DF0C6
:1026E000C390213CE09DFF90213BE09CFE9097949D
:1026F000F0A3EFF0C3EE64809480502490DFCDE02F
:102700006010909795E02400F0909794E03402F0E8
:10271000800E909795E02400F0909794E03402F0BA
:10272000909794E0FFA3E090A62ECFF0A3EFF09057
:10273000A6327480F02290213D7401F078BEE254FC
:10274000FDF22290213D7401F078BEE254FDF222A8
:10275000E4F5A875A50412B5F775A501129DD0EF93
:10276000600675A50212B5E290D28DE064026007A2
:10277000909E1DE054EFF0E4F5A5781FE620E308F5
:102780003001057F011235A6909DFEE060057F01B6
:102790001235A612382C1223E9123D7E1222F712AE
:1027A0002F8F12396A75A50512BA3C120016E4F58E
:1027B000A575A50612D329E4F5A530001D123DD854
:1027C000123DC4123DCE123DBA123DF6123DEC123E
:1027D0003E46123E3C123AB18009909DFEE06003F5
:1027E000123DD8123D9C123D88123DB0123D92120E
:1027F000FFA8C288C28A200103123E1422FF0022D1
:102800000200000000FF0B8C0000000000FF93E4BA
:102810000000000000FFE6FF0101000000FF89F951
:102820000101000000FFEC3D0101000000FF5FAB73
:102830000107000000FF180B0100000000FFB64375
:102840000205000000FF4B800202000000FF5EE373
:10285000020C000000FF90BA0205000000FF820792
:102860000201000000FF63CE020B000000FF587A57
:102870000202000000FF9B510202000000FF7D8564
:102880000207000000FFE9180203000000FF547A6D
:102890000204000000FF0022020000000090DFAFF1
:1028A000EFF0A3EDF0EB1229A730E7237F037E00C2
:1028B0001232E590DFAFE08F828E83F090DFB0E0E0
:1028C0008F828E83A3F090DFB112296F023CA69015
:1028D0009EB4E030E66112294EE0705BEF1229539E
:1028E0007401F07F037E001232E5909C20E0FD121F
:1028F0002940EEF0A3EFF090DFAFE0FFED122940AA
:10290000122980EFF090DFB0E0FF909C20E0FE12F3
:102910002940122980A3EFF090DFB1E0FF12293F98
:10292000122980A3A3EFF0EE122989E4F0740312B8
:1029300029BAB42002E4F022E5A5F075A50622EE3E
:1029400075F005A424A0F582E4349AF58322909CC6
:1029500020E0FF75F005A4249DF582E4349AF58308
:1029600022F0EE25E02408F582E434DFF58322E04E
:102970008F828E83A3A3F0AD07AC067F037E002277
:10298000E0FCA3E0F5828C832275F005A4249EF57B
:1029900082E4349AF5832275F005A424C1F582E41B
:1029A000349BF58322F0EDA3F0909FD6E02225E042
:1029B0002409F582E434DFF58322A3F0909C20E023
:1029C00004F0E0228F738D748A758B7612202A9022
:1029D0009A14EEF0A3EFF0E5764575602B909A140B
:1029E000E0FEA3E0FF2404F582E43EF5837403F0E7
:1029F000EF2406FFE43EFAA9077B01900003E5758A
:102A00008576F01203218012909A14E0FEA3E02450
:102A100004F582E43EF5837404F0909A14E0FCA37C
:102A2000E0FD2406FFE43CFE8F82F583E577F0AA03
:102A300006A9077B01900001E5731201B490000222
:102A4000E5741201B47F07121FE62290DF85EEF0D5
:102A5000A3EFF0A3EC1229A530E71390DF87E0FE87
:102A6000A3E0FF90DF85E0FCA3E0FD023CA6909E82
:102A7000B4E030E64512294EE07033909C20E0FE31
:102A80001229537401F090DF85E0FCA3E0FD1229C8
:102A90003FECF0A3EDF090DF87E0FCA3E0FDEF1248
:102AA0002989ECF0ED1229BA64207023F02290DF1E
:102AB00087E07002A3E06017800A90DF87E0700271
:102AC000A3E0600B90DF85E0FEA3E0FF12358D22CE
:102AD00030983730051A90CA62E02492F582E434C7
:102AE0005EF583E599F090CA62E004F0E0F08018AA
:102AF00090CA62E02465F582E434CAF583E599F072
:102B000090CA62E004F0E0F0C298309940C2999017
:102B1000CA63E0FF90CA61E0FE6F602B30050F745E
:102B2000922EF582E4345FF583E0F599800D7465AB
:102B30002EF582E434CBF583E0F59990CA61E00488
:102B4000F0E490CA64F02290CA647401F022909973
:102B500030EEF0A3EFF0A3ECF0A3EDF090D7C0E0DF
:102B6000FF1236CAE0705EAD03EF75F007A424C60D
:102B7000F582E434D7F583EAF0A3EDF090993012B2
:102B800036E524C2F582E434D7F583ECF0A3EDF00A
:102B90009099321236E524C4F582E434D7F583ECFB
:102BA000F0A3EDF0908A62E0FF90D7C06007123684
:102BB000C9EFF080061236C97401F090D7C0E00466
:102BC000F0E0540FF022EFC454F02406F582E43410
:102BD000D7F58375F004ED1204C1E4F074422FF8C8
:102BE000E26D705674FFF55AF55BF9EFC454F024AA
:102BF00006F582E434D7AB82FAE4FD8B828A83E067
:102C0000601AA3E0F8A3E0F5828883C3955BE583AF
:102C1000955A5008A90585835A85825B74042BFB5D
:102C2000E43AFA0DBD04D4EF25E02430F8E55AF279
:102C300008E55BF274422FF8E9F222C2AF786BE24A
:102C4000FE08E2FFF5828E83A3A3A3E0FCA3E0FDD0
:102C500078EBECF2FC08EDF2FDEF2408F582E43E9F
:102C6000F583E0FFA3E0786BCFF208EFF290D1821A
:102C7000E004F0D2AFED4C702D12201978E9EEF29D
:102C800008EFF218E2FC08E2FD2404F582E43CF5CA
:102C9000837404F07F11121FE67EA07F0078EB742E
:102CA000A0F2087400F278EBE2FE08E2FF228F4AFD
:102CB000907E72E0C3954AF0905E91E0F54B854AB4
:102CC0004CE54BC394FF50507492254BF582E4348D
:102CD0005DF583E0703B154CE54C7038C3E54B95D2
:102CE0004A04F54B2492F582E4345DAF82FEAB4A90
:102CF000AD4A123D64905E91E0B54B03254AF075F4
:102D0000F020E54BA42492F582E5F0345EAF82FE1C
:102D100022854A4C054B80A9123E7DE4FEFF22C26B
:102D2000AF7829E27821F2782CE521F2E512D394EC
:102D300003404F7521C77823E2FE08E2FFF5828E3B
:102D400083A3A3A3E07829F2E4782DF2D2AF782907
:102D5000E2FD33333354F8FD90280193F5A574FD5B
:102D60002DF582E43427F583E493740193FA740219
:102D700093F5828A831205A5E4F5A5C2AF12204C13
:102D800080AA7821E27829F2782CE2F521D2AF22CC
:102D9000909891EFF0E4A3F0909892E0FFC3940133
:102DA000504775F06FEF90CEA71204C1EF2583F561
:102DB00083E0FF909891E0FEEFB50625A3E0FF7554
:102DC000F06F90CEAB1204C1EF2583F58312043768
:102DD000E4FBFAF9F8C31203EC6006909892E0FF66
:102DE00022909892E004F080AF7FFF22300A1B7897
:102DF0002DE510F27823E2FE08E2F5828E83E0FFF3
:102E0000A3E07827CFF208EFF22230091B7819E50A
:102E100011F2782AE2FE08E2F5828E83E0FFA3E059
:102E20007817CFF208EFF22230081A7820E513F273
:102E3000781AE2FE08E2F5828E83E0FFA3E0781EB6
:102E4000CFF208EFF22290DF06E0122963E0704B28
:102E5000EF6048ED602C90DEFFE060069086B57470
:102E600001F0E4FE122962E0B4010AEE1229AEE498
:102E7000122961E4F00EEEB404EA90DF06E090DF80
:102E800005F090DF06E0FE1229AEEF122961740111
:102E9000F090DF06E004F0E05403F0228F828E838E
:102EA000A3A3E01460321460191470417812E2FD9B
:102EB00008E28F828E83CDF0A3EDF018EEF208EFDA
:102EC000F2227810E2FD08E28F828E83CDF0A3ED2E
:102ED000F018EEF208EFF2227814E2FD08E28F8299
:102EE0008E83CDF0A3EDF018EEF208EFF222EF4E54
:102EF000604CC3EF9492FFEE945EFEEF7805CEC374
:102F000013CE13D8F9F54AC394FF50327492254A70
:102F1000F582E4345DF583E0FB907E72E02BF07483
:102F200092254AF582E4345DAF82FEE4FD123D64F1
:102F3000905E91E0FFE54AC39F5003E54AF0228F7F
:102F4000718D728B7312202A909931EEF0FCA3EFF1
:102F5000F0FD909931E0FEA3E0FF2404F582E43E09
:102F6000F5837404F0EF2406FFE43EFE8F82F583C0
:102F7000E573F0AA06A9077B01900001E571120133
:102F8000B4900002E5721201B47F07121FE622E43A
:102F9000909861F0909861E0FF75F007A424BCF56B
:102FA00082E434D4AD82FCEF75F007A424B5F58239
:102FB000E434D4F583ECF0A3EDF0909861E004F0F4
:102FC000E0B41FD0E490D58EF0A3F090D59574D4E2
:102FD000F0A374B5F0E490D4B3F0A3F0229099E795
:102FE000EF1229A530E7207F037E001232E58F82A1
:102FF0008E83E4F09099E7E08F828E83A3F090991E
:10300000E812296F023CA6909EB4E030E619909B2E
:10301000EF7401F0E4A3F09099E7E0909BF1F09059
:1030200099E8E0909BF2F022D2AFAF0589828A83C3
:103030001205A5C2AF90DF28E02418F582E434DF42
:10304000F583E0F5A590DF28E014F0E0540FF0D20E
:10305000AF22C2AF90DF28E004F0E0540FF0E0248C
:1030600018F582E434DFF583E5A5F022E5A5F075D7
:10307000A50C22909BFBE0122997E0703FAF0590D2
:103080009BFBE0FD75F005A424C4F582E4349BF5B8
:1030900083ECF0A3EFF0AF01ED75F005A424C2F5C9
:1030A00082E4349BF583EAF0A3EFF0ED12299774E4
:1030B00001F0909BFBE004F0E05407F02285A5446A
:1030C00075A5047E9E7F007C527D7A7B007A021279
:1030D000373D7E8A7F4D7C367D0A7B017A00123730
:1030E0003D7E817F5D7C367D0B7B207A0012373DF3
:1030F00075A50C7ECC7F657C437DD17BFF7A011268
:10310000373D8544A5229099F1EEF0A3EFF0EB4A0C
:10311000603C90A403E020E1F9C2AFAF0590A406A3
:10312000ECF0A3EFF0AF0390A40AEAF0A3EFF09065
:1031300099F1E0FFA3E090A412CFF0A3EFF090A4E8
:1031400003E04402F0D2AF90A403E020E1F9228E24
:10315000328F338F828E83E0FEA3E0FF4E700D85A9
:103160003382853283ECF0A3EDF0801B8F828E8357
:10317000E0FAA3E0FB4A6006AE02AF0380EE8F8266
:103180008E83ECF0A3EDF08D828C83E4F0A3F0222B
:103190008E838F82E0FFA3E0FEA3E0FDA3E090BC5E
:1031A0000CF0A375920190B811759200EDF0A37523
:1031B0009201F0A3759200EEF0A3759201F0A37551
:1031C0009200EFF0A3759201F07592002290990C95
:1031D000EFF0AB05AA04E475F0011233B5AFA5EF2B
:1031E000FD1233D3E4F0A3EDF075A50C90990CE03B
:1031F000FFAC02AD0312800D90DF751233D3A3E054
:10320000F5A574FFF5F01233B52290986BEFF0A39B
:10321000E5A5F0909EA3E0FFC39402500D75A50DA7
:1032200090986BE0FD12EA5A801275A50E909EA34D
:10323000E024FEFF90986BE0FD12F3A290986CE002
:10324000F5A522D510035312FB782DE270197823CF
:10325000E2FE08E2FFF5828E83E0FDA3E07827CD51
:10326000F208EDF2122E9CE4782DF27827E2FF08A6
:10327000E27823CFF208EFF222D511035312FD7842
:1032800019E27019782AE2FE08E2FFF5828E83E0E7
:10329000FDA3E07817CDF208EDF2122E9CE4781928
:1032A000F27817E2FF08E2782ACFF208EFF222D58F
:1032B00013035312FE7820E27019781AE2FE08E236
:1032C000FFF5828E83E0FDA3E0781ECDF208EDF2DB
:1032D000122E9CE47820F2781EE2FF08E2781ACFE2
:1032E000F208EFF222EF4E70057573018026EF545D
:1032F0001FD39400E49400400FEF7805CEC313CEA3
:1033000013D8F904F573800CEF7805CEC313CE13F0
:10331000D8F9F573AF7312358522D310AF01C3C04E
:10332000D0EDF5E9ECF5EAEFF5EBEEF5ECEBF5EDCC
:10333000EAF5EE7404140070FCE5E9FFE5EAFEE549
:10334000EBFDE5ECFCE5EDE5EED0D092AF229098F8
:10335000F8EEF0A3EFF0A3ECF0A3EDF0A3E5A5F0F9
:1033600075A506909FD6E09098F830E7081238923D
:1033700012E15A800612389212DA039098FCE0F5B6
:10338000A5228F4A8D4B122019909823EEF0A3EFBF
:10339000F02404F582E43EF583E54AF0EF2405F5D8
:1033A00082E43EF583E54BF0909823E0FCA3E0FD3A
:1033B0007F02021FE690DF7412027390DF74E0FE5A
:1033C000A3E0FF7C007D0312023D90DF74ECF0A3CC
:1033D000EDF022E025E0FF90DF74E033FE746E2F05
:1033E000F58274DF3EF58322D310AF01C3C0D0ED68
:1033F000F5E9ECF5EAEFF5EBEEF5ECEBF5EDEAF5DA
:10340000EE7404140070FCE5E9E5EAE5EBE5ECE5B3
:10341000EDFFE5EEFED0D092AF22E49097C1F0EF41
:1034200025E024A0F582E434D98011EF4E60169097
:1034300097C1E004F0EF2407F582E43EF583E0FE57
:10344000A3E0FF80E69097C1E0FF229091D0E0904A
:10345000B80BF09091D1E090B80AF09091D2E09042
:10346000B809F09091D3E090B808F09091D4E09032
:10347000B80FF09091D5E090B80EF02290DFAC122A
:1034800036D8AF0578AFECF208EFF2AF0378ABEACD
:10349000F208EFF290DFACE0FFA3E078ADCFF208E6
:1034A000EFF212DFF990DFAEE0F5A522000300078E
:1034B000000F001F003F005F007F00BF00FF018082
:1034C00003000601000000020004000A0014001FAF
:1034D000002A003F0054007F00FF020090BF17E069
:1034E000F52B90BF16E0F52C90BF1AE0F52D7894DF
:1034F000E27010E52C7004E52B6004123A3F2212B2
:10350000101522121015227814E2FE08E2FF8E3206
:10351000F533453260168F828E83E0FEA3E0FF18FC
:10352000EEF2FE08EFF24E7003123E77AE32AF338A
:10353000227810E2FE08E2FF8E32F5334532601643
:103540008F828E83E0FEA3E0FF18EEF2FE08EFF21A
:103550004E7003123E77AE32AF33227812E2FE088D
:10356000E2FF8E32F533453260168F828E83E0FEA5
:10357000A3E0FF18EEF2FE08EFF24E7003123E7762
:10358000AE32AF3322D20E122CAEC20E22D20E12A7
:103590002EEEC20E22D20E12EB76C20E2202347C26
:1035A00002380C023B060239CD023073023BD68E44
:1035B000858F848C838D82EB601EE0FFA3E0FEA3E9
:1035C000E0FDA3E0A3759201F0A3EDF0A3EEF0A35C
:1035D000EFF0A3759200DBE22290DF687402F0A3A3
:1035E000E5A5F0A37480F0AE81A806E6A3F0A3EFF2
:1035F000F0E58114F8E6A3F07CDF7D647F04121F00
:10360000E62205154205390015420091819D505D65
:10361000724478A00129EB2C763568000011010076
:10362000001000800000805F9B34FBD310AF01C30B
:10363000C0D0EFF5E9EEF5EAEDF5EDECF5EE74024C
:10364000140070FCE5E9FFE5EAFEE5EDE5EED0D01B
:1036500092AF22D310AF01C3C0D0EFF5E9EEF5EA87
:10366000EDF5EDECF5EE7402140070FCE5E9E5EA29
:10367000E5EDFFE5EEFED0D092AF229004E475F0C8
:1036800003E56B1204C1E02290DDC2F090DDE8F0AA
:1036900090DDC8F02290D293E0FEA3E0FFF5828E89
:1036A000832290BE2BE09097CCF090BE2812043776
:1036B0009097C812047890BE2BE0FF9097CCE0B5AD
:1036C00007E09097C812043722E075F007A424C1E0
:1036D000F582E434D7F58322EEF0A3EFF0A3E5A55D
:1036E000F075A50422E0FCA3E0FDEF75F007A4222D
:1036F00090B001EFF0A3ECF0A3EDF090B005E04442
:1037000010F0E4909853F00030070100909853E0D7
:1037100004F0E0B40AF12290982BE5A5F075A5021B
:10372000C007909829E0FFA3E0909831CFF0A3EF75
:10373000F0D00712A33390982BE0F5A5228E858F49
:10374000848C838D82EA7003EB6015EB6003EA04DE
:10375000FAE493A3759201F0A3759200DBF3DAF11A
:10376000228E858F848C838D82EA7003EB6014EB4C
:103770006003EA04FAE0A3759201F0A3759200DBFE
:10378000F4DAF22290A4B0E054C070F890A4B1EF43
:10379000F0AF05A3ECF0A3EFF090A4B07480F0902C
:1037A000A4B0E020E7F92290A4B0E054C070F890F3
:1037B000A4B1EFF090A4B07440F090A4B0E020E683
:1037C000F990A4B6E0FEA3E0FF22E490DE4EF09074
:1037D000DE4FF090DE50F07853F208F290DE5BF0AE
:1037E00090B403F090BC22E0547FF0228E858F8449
:1037F0008C838D82AF031BEF6010E0A3FF759201F5
:10380000E0A37592006F60ECD322C32290DFA9126F
:1038100036D8AE04AF05AC02AD0390DFA9E0FAA341
:10382000E0FB12C77D90DFABE0F5A52275985075DF
:103830008920E587547F4480F587300705758DB270
:103840008003758DE6D28ED299C298220000108135
:103850002102318342045285630673878408948968
:10386000A50AB58BC60CD68DE70EF78F8E858F8493
:103870008C838D82EB60121BE493A3FF759201E0B1
:10388000A37592006F60EDD322C322E5A5F075A564
:103890000A22E0FEA3E0FFA3E0FCA3E0FD22E5A5F1
:1038A000F075A503228E858F848C838D82EB600D4D
:1038B000E493A3759201F0A3759200DBF32285A532
:1038C0004475A5057E147FC07C607D007B637A0013
:1038D00012373D8544A52285A54475A5057E147F34
:1038E000C07C507D007B007A0112373D8544A522C3
:1038F0008FA590954FE0FEA3E0FF90954DE0FAA3D1
:10390000E0FB12373D75A50422123052854CA5D23A
:10391000AFAF0589828A831205A5AD07123033AF98
:1039200005228E838F82EA7003EB600DEB6003EA61
:1039300004FAEDF0A3DBFBDAF9228E858F848C8309
:103940008D82EB600CE0A3759201F0A3759200DB11
:10395000F42204D00624077808CC0A200B740CC883
:103960000E1C0F7010C41218136CE4905E91F0FFDF
:103970007FFF905D92E4F0A3DFFC907E7274FFF015
:103980002290983AE5A5F075A50112F40C90983AAA
:10399000E0F5A52290979EE5A5F075A50212DC0A38
:1039A00090979EE0F5A5229098F6E5A5F075A50400
:1039B00012D62B9098F6E0F5A5229098A2E5A5F0F6
:1039C00075A505124F569098A2E0F5A522902AC938
:1039D000E5A5F075A50112BA8B902AC9E0F5A522DC
:1039E00090DFC5E5A5F075A50112E82190DFC5E0DF
:1039F000F5A522909863E5A5F075A50712E1FE9064
:103A00009863E0F5A522909861E5A5F075A50412EC
:103A100085BB909861E0F5A5229097CEE5A5F0755D
:103A2000A50112DB789097CEE0F5A522909863E58A
:103A3000A5F075A50612E343909863E0F5A52290E2
:103A40009794E5A5F075A50512BEFC909794E0F556
:103A5000A522909914E5A5F075A50312DEC39099EF
:103A600014E0F5A5229098FCE5A5F075A50312D702
:103A7000F99098FCE0F5A52290986FE5A5F075A562
:103A80000B12731490986FE0F5A5229099F1E5A5BB
:103A9000F075A50B126DFB9099F1E0F5A5229098B9
:103AA000E3E5A5F075A50C12B60E9098E3E0F5A538
:103AB00022909861E5A5F075A50C12AAE99098618D
:103AC000E0F5A522E5466401FF75F0D0908A8712E3
:103AD00004C1EF2583229098611236DE12DBA39099
:103AE0009861E0F5A5229097CE1236DE12C9C490F7
:103AF00097CEE0F5A5229097CE1236DE12D7119020
:103B000097CEE0F5A5229099101236DE12B13890CA
:103B10009910E0F5A5229098DB12388B12403A906C
:103B200098DBE0F5A52290990712388B124FF99097
:103B30009907E0F5A5229098DB12388B1259C590B1
:103B400098DBE0F5A5229098DB12388B1244D690D2
:103B500098DBE0F5A5229099F112389E12D9A49035
:103B600099F1E0F5A52290990712389E12DC609039
:103B70009907E0F5A52290990712389E12DEC390AE
:103B80009907E0F5A522909856123E6A12D69E90AB
:103B90009856E0F5A522909856123E6A12CC59909C
:103BA0009856E0F5A522909856123E6A12DD47908D
:103BB0009856E0F5A5229098F612293812ABAE90EF
:103BC00098F6E0F5A5229098DB122938129ED49041
:103BD00098DBE0F5A52290DFC612293812D6A7900F
:103BE000DFC6E0F5A5229098DB12293812CDDF90D0
:103BF00098DBE0F5A5229098F212293812F486900D
:103C000098F2E0F5A52290979E122938125B349025
:103C1000979EE0F5A52290982312293812D095900E
:103C20009823E0F5A52290984312293812EBB8901A
:103C30009843E0F5A52290984312293812EDB090F0
:103C40009843E0F5A52290984312293812F27D900E
:103C50009843E0F5A52290984212293812D4569044
:103C60009842E0F5A52290984312293812D7C990BE
:103C70009843E0F5A52290984312293812D1E2909A
:103C80009843E0F5A52290982512293812F0029069
:103C90009825E0F5A5229098EB122938128E9F9076
:103CA00098EBE0F5A5229099E912293812DD4290AF
:103CB00099E9E0F5A52290993212293812E15A903B
:103CC0009932E0F5A5229098DB12293812403690FF
:103CD00098DBE0F5A52290993112293812E6FB9085
:103CE0009931E0F5A52290986512293812F7539082
:103CF0009865E0F5A5229098DB12293812DA039036
:103D000098DBE0F5A52290986612293812CC4790EE
:103D10009866E0F5A5229098DB12293812B0DF9062
:103D200098DBE0F5A5229098E512306C1247D99007
:103D300098E5E0F5A52290990712306C1251309069
:103D40009907E0F5A5229098E712306C12C74490CD
:103D500098E7E0F5A5221230528DA5D2AF1205A149
:103D6000123033228E838F82EB6005EDF0A3DBFBF4
:103D70002285A54675A50112D4208546A522E4F525
:103D800012F510F511F5132275A50112FB28E4F5C3
:103D9000A52275A50112FB7FE4F5A52275A50112E8
:103DA000B5A1E4F5A52275A5051259A375A50122B3
:103DB00075A50712CB87E4F5A52275A50C12BC6E7C
:103DC000E4F5A52275A50212E079E4F5A52275A512
:103DD0000512CFE8E4F5A52275A50312C9A3E4F501
:103DE000A52275A50412B92E75A5052275A5071281
:103DF000F173E4F5A52275A50212DF7AE4F5A52298
:103E000075A50112B021E4F5A52275A504129A6AE0
:103E1000E4F5A52275A50412D19DE4F5A52275A5AA
:103E20000612F64C75A50522123052855BA512309C
:103E30002822123052854AA51230282275A50B126D
:103E400084C6E4F5A52275A50112D2D3E4F5A52216
:103E50007F161235D9E4FEFF22740EC0E07400C054
:103E6000E03200014343C7C7C7C7E5A5F075A50405
:103E7000227F141235D9227F151235D9227F1712CD
:103E800035D922E4F5A5023FC0001208001000FF5A
:103E9000FFFFFFFFFFFFFFFFFFFFFFFFFFFFFFFF32
:103EA000FFFFFFFFFFFFFFFFFFFFFFFFFFFFFFFF22
:103EB000FFFFFFFFFFFFFFFFFFFFFFFFFFFFFFFF12
:103EC000FFFFFFFFFFFFFFFFFFFFFFFFFFFFFFFF02
:103ED000FFFFFFFFFFFFFFFFFFFFFFFFFFFFFFFFF2
:103EE000FFFFFFFFFFFFFFFFFFFFFFFFFFFFFFFFE2
:103EF000FFFFFFFFFFFFFFFFFFFFFFFFFFFFFFFFD2
:103F0000FFFFFFFFFFFFFFFFFFFFFFFFFFFFFFFFC1
:103F1000FFFFFFFFFFFFFFFFFFFFFFFFFFFFFFFFB1
:103F2000FFFFFFFFFFFFFFFFFFFFFFFFFFFFFFFFA1
:103F3000FFFFFFFFFFFFFFFFFFFFFFFFFFFFFFFF91
:103F4000FFFFFFFFFFFFFFFFFFFFFFFFFFFFFFFF81
:103F5000FFFFFFFFFFFFFFFFFFFFFFFFFFFFFFFF71
:103F6000FFFFFFFFFFFFFFFFFFFFFFFFFFFFFFFF61
:103F7000FFFFFFFFFFFFFFFFFFFFFFFFFFFFFFFF51
:103F8000FFFFFFFFFFFFFFFFFFFFFFFFFFFFFFFF41
:103F9000FFFFFFFFFFFFFFFFFFFFFFFFFFFFFFFF31
:103FA000FFFFFFFFFFFFFFFFFFFFFFFFFFFFFFFF21
:103FB000FFFFFFFFFFFFFFFFFFFFFFFFFFFFFFFF11
:103FC000C2AF90BD03E4F0000043D680D285C28525
:103FD00000000002000EFFFFFFFFFFFFFFFFFFFFDB
:103FE000C2AF90BD03E4F0000053D67FD285C285F6
:103FF00000000002000EFFFFFFFFFFFFFFFFFFFFBB
:104000000011001B007900B700E00153FFFF000022
:10401000000000000000000000000000000000039D
:104020000303020202020101010101010101040472
:104030000404040404040404040404040404040341
:104040000303020202020101010101010101001B3F
:10405000000A0014001EFFFF001D007900B7FFFFDB
:10406000FFFF00E001530036FFFF003C005A005301
:10407000001D016F02280168021C02A703FD000257
:10408000FEFE01FE0102FE001E3C5A7896B4D2E408
:10409000F55490DFC8E0F553E4F0C222C23978C08D
:1040A000E24401F2A220B34003024CCE301A189031
:1040B0009224E0FF64017003024CCE90921CE0FE5B
:1040C000EF6E7003024CCE908A85E024FE700302EE
:1040D00045111470030247501470030249AE146076
:1040E00028147003024323146003024C9390B85BBE
:1040F000E064087003024C9990B85FE064067003B6
:10410000024C9912F0EB024C99D22290DE0CE05452
:104110000D24FB70030241F024F870030242C02416
:104120000C600302431E78D312BEB330261E90915A
:10413000E1E06401701612BF16700218E270089078
:10414000D9FF740202436BC222024C9912BF8A301B
:104150003C259091C7E0FF9093A6E0FE6F600AD2E5
:104160003D9091CAEEF0024C99748E2FF582E434A2
:1041700093F583E04410F078D3E2FE08E2FF78D6AE
:10418000E26F700318E26E70627851E224FE600301
:10419000024C99124D3C12F80E12BED99091C7E014
:1041A000FC75F0D0908A881204C1EC2583F583E079
:1041B000FE12BF91FDEE4D12BE4512BEE4AF04E407
:1041C000FD12BC689091C7E0908BA912BE2012BF6F
:1041D0002A12BE94784E7405F290DE0CE04404F08E
:1041E0007F1A12FDD990DDF0024688C222024C9956
:1041F0007851E224FE601B24026003024C9912F104
:104200008812BE9C12BF01440112BE7E12BF36024C
:104210004C9912BF2360FB90BF43E020E00990DD82
:10422000F0E0D39402405D12FC67124D2E9091DBBA
:10423000120490000000007BFF7AE1794390DE0DCC
:10424000E0FD755B01123E2812FE3B9091E1740186
:10425000F0C2119091E5E04402F090DE0CE04408D9
:10426000F07F1012FDD9D222E490DDF0F012BE19D9
:10427000E04490F07859E2FEEFD39E403890DE0D96
:10428000E0F2803112F18812BED912F80E12BF91FD
:10429000FF9091DAE04F90B81B12BE4512BF014467
:1042A0000390BA03F090DE0DE0FFE4FD12BC68124B
:1042B000BE9512BF98784A7405F2784EF2024C9976
:1042C00090DDF0E0D3942040167F1912FDD912F250
:1042D000AA12BE5EF5188F19F51A8F1B024C99129F
:1042E000FA8312BE2D12BE19E04460F0C22275F0AE
:1042F000D0EF908BA912BE24E0FF90D931E0FCA34F
:10430000E02412F582E43CF583EFF090DE0DE0FF4F
:1043100075F0D0908BA912BE24E4F0024506C222AB
:10432000024C99D22290DDF7E0546D24FB70030219
:1043300043E224F87003024C9924E07003024453D2
:1043400024C070030244DA246C600302450C78D761
:1043500012BEB33026239091E1E06402701B12BFBD
:1043600016700218E2700D90D9FF04F0D21312BF3C
:104370008A024C99C222024C9912BF8A78D7E2FE77
:1043800008E2FF08E2FC08E2FDC39FFBEC9EFAD3C3
:10439000EB9418EA94005045ED6F7002EC6E6003E8
:1043A000024C997851E224FE702B124CCF124D230F
:1043B0009093A6E0FF75F0D0908BA912BE2412BF97
:1043C0002A12BE8190DDF7E04404F07F1D12FDD972
:1043D000E490DDF0F0784A7408F2024C99C22202AF
:1043E0004C997851E2603324FE6003024C9990DDD1
:1043F000F0E0D39410400F7F1B12FDD9E47858F2FF
:104400007857F2024C99124CCF124D2312BE8212F1
:10441000BF36784A7408F202450612BF2360FBE0FB
:10442000640460F6E0640560F190BF43E0F5552058
:10443000E203024C99124D3C12FF5512BF01440198
:1044400012BE91784E7408F212BF9FE490DDF0F036
:10445000024C9912DDCD90DDF7746DF09091E5E09E
:1044600030E003124CF59091E17402F09091E5E098
:104470004401F07859E2B40204E054FDF0784DE2D2
:1044800054F7F212BE2DC22212BE5EFE9093BEF011
:10449000A3EFF012BF628E832422F582E5833401FC
:1044A000F583E4F09091DAE0FF9093BEE0FCA3E0A6
:1044B000F5828C83A3EFF012BF98D2199091C712A6
:1044C000BE1CE04490F09093B5E0FE75F0D0EF9004
:1044D0008A8712BE24EEF0024C9990DDF0E0D3946E
:1044E0002040217F1C12FDD912FE3BE47858F2785F
:1044F00057F29093A612BE1CE044F0F0E4908A8537
:10450000F0024C99C22212BF98024C99C222024C6E
:1045100099785EE2FD601DC22212BE3312BF3E24B6
:1045200047F582EE3401F583E064086003024C999C
:10453000ED024C96D22290DE10E0540D24FB700365
:1045400002468E24F8700302474B240C6003024C91
:104550009990BE23E054FEF07851E214602D14606F
:104560004A14604724036003024C99E553640160D8
:1045700003024C9912BEE4C21512E3EF90BA237401
:1045800002F012BF36784A74038017E55364026064
:1045900003024C9912BFA9C21512E3EF12BE827832
:1045A0004A04F290DFC814F0024C9912BF2360FB5A
:1045B00090BF43E030E049E553640270437851E234
:1045C000B4020512FBB9800312FC6790BE241204EA
:1045D0003790DDF112047812BF4690DE0B7401F0C3
:1045E00012E97212BE89784E7404F212BE3F12F9BB
:1045F0001C12BED990DE10E04404F07F080247454B
:1046000090DE05E020E10790DDFFE030E11A78510F
:10461000E264036003024C9912BFB312BE33E4900C
:104620008A85F07F07024745909C64E030E01A7865
:1046300051E264036003024C9912BFB312BE33E42B
:10464000908A85F07F0702474512FF557851E2B402
:10465000021F7844E2B41002D23912BEE412E3EF32
:1046600012BE95784E7403F290DFC8E553F0024C09
:104670009912F96812BFA912E3EF90BA2B7401F0F6
:10468000784E7403F290DFC87401F0024C997851AF
:10469000E224FE602424026003024C9990DDF4E0E1
:1046A0004402F012E97212BF01440190BA0BF012F9
:1046B000BE9C12BE82784A802690DE0BE004F01287
:1046C000BF2360FB90BF42E030E01A12BF4612E900
:1046D0007212BED912F91C12BE3F12BE89784E74F6
:1046E00004F2024C9990BF43E020E003024C99127F
:1046F000BE2D12FC6712FA839091E17401F0C21191
:10470000124D2E9091E5E04402F030E002D2269066
:1047100091E5E020E30330E202D25790DE1112BEB1
:104720001CE044F0F075F0D0EF908BA912BE24E4A9
:10473000F0C222302606784DE24410F290DE10E0FE
:104740004408F07F1012FDD9024C99C222024C9904
:104750007868E2600302487ED22212BE33784A743F
:1047600002F290DDFFE0FF541924F7700302483491
:1047700024F070030248482418600302487A90919C
:10478000E5E030E013EF20E50F90DDFFE04420127C
:104790004D1712BF6D02489390DDFFE030E62E12F8
:1047A000BF4E90DE00E0FF20E60312BF7890DE01EE
:1047B000E475F001120289FE90D728E0B50608A33F
:1047C000E0B5F00312E6CE7554010248937851E249
:1047D0006402600302489390D729E025E0FF90D758
:1047E00028E033FE90DE03E475F001120289FCC379
:1047F000E5F09FEC9E400990DDFF124D4802489382
:104800007844E2FF64106004EFB41102D2397554A9
:104810000112F4AA12BE7990DDFFE04440F090DE70
:1048200001E07002A3E0606B90DE0174FFF5F0120E
:104830000273805F90D723E0600990DE00E04401BE
:10484000F0805090DDFF802C90DE00E020E4447F7B
:104850000C12FDD990DDFFE030E50512F2AA800BC5
:10486000C2AF90BE12E04403F0D2AF78C0E254FE73
:10487000F290DE00E04410F08019C222801590DD35
:10488000FFE020E604C222800A90DE00E020E5037B
:1048900012E6CE90DE00E0FF5407FEBE010AEF44B0
:1048A00002F012BF5A024C99EE640360030249837E
:1048B00012BF5A90D9BDE0FF90BE27E06F6003029F
:1048C0004C9912BF91F0E0547FF090B81AE054FE7A
:1048D000F0E054FDF090D7BAE0602D90D723E0FDD2
:1048E000D39411500B90B81BE054874418F08043C8
:1048F000EDD3947990B81BE0500754874450F08072
:104900003254874470F0802B90D723E0FDD3941B62
:10491000500B90B81BE054874420F08016EDD394E0
:10492000B790B81BE0500754874458F0800554876F
:104930004478F090B817E054FC4402F0E054FBF0E7
:1049400090D723E075F008A4FF90B817E05407FD56
:10495000ED4FFFE5F012BE56784E7409F290212B10
:10496000E0FFA3E090B61ACFF0A3EFF012BEE4E4AC
:1049700090B805F090BA2304F090DE00E04404F013
:10498000024C9990DE00E0FD540764076003024C7E
:104990009912BF5A90B85BE06003024C99ED54F84D
:1049A00090DE00F090DDFFE04410F0024C99786852
:1049B000E26003024C7CD22290DE05E0543D24FBF1
:1049C0007003024AD624E87003024BCB241C600318
:1049D000024C789091E5E030E02290DE06E0FF5452
:1049E000037019EF4401124D1712BF6D7844E26451
:1049F000106003024C9912FC67024C9990DE06E0AD
:104A000030E114E4908A85F090DE05F0A3E054FCD8
:104A1000F012F2AA024C9990DE05E030E648A3E0DD
:104A2000FF20E60312BF7812BF4E90DE0712BF834D
:104A3000909E06E0700D90DE07E07003A3E0F47036
:104A40001F801A90D72DE02401FF90D72CE034006E
:104A5000FE90DE07E0B50608A3E0B5070312E6CE38
:104A6000755401024ACE7851E26402706190D72DEC
:104A7000E025E0FF90D72CE033FE90DE0912BF83E3
:104A8000FCC3E5F09FEC9E400990DE05124D480204
:104A90004C997844E2FF64106004EFB41102D239FB
:104AA00075540112F75112BE3312BE7990DE05E043
:104AB0004440F090DE07E07002A3E0600A90DE0759
:104AC00074FFF5F012027390DE06E054DFF0784ACE
:104AD0007406F2024C99784FE2FD7851E2C39D547E
:104AE00003F5526401704E12BF4690BE27E0C39D8D
:104AF0001313543F0490DE0BF0E0FF6405700302D3
:104B00004BC3EFD3940540117F1312FDD990DE05FE
:104B10007480F012BE33024BC312BE9C90B85BE0AF
:104B2000640C60F8E0640160F312F3AE90BE2712EB
:104B3000BE7C024BC390DE0BE07003024BC3300718
:104B400010E58E547070057556648013755632806A
:104B50000EE58E547070057556288003E4F556E412
:104B6000F555E555C39556500500055580F4E552B9
:104B700064036004E552704B90BF43E030E0449022
:104B8000B85FE0640560F8000090BF43E030E230B9
:104B900090B82BE054786410702690BE27E0785FC0
:104BA000F290DDF4E04402F012F3AE12FF5590BE35
:104BB00027E00412BE9112BF9F784A7407F2800367
:104BC00012FC67784A7407F2024C9912DDCD90BE50
:104BD00027E054037851F290DE05E04420F09091F4
:104BE000E5E0FF30E102D226EF20E30330E202D21B
:104BF00057EF30E008124CF5E490DE06F09091E5B6
:104C0000E04401F09091E17402F0302611784DE219
:104C10004410F27B007A017D027F1412207F784DD0
:104C2000E254F7F212BE5E9093BEF0A3EFF012BF13
:104C30003EFF12BF629091DAE08F828E83A3F01262
:104C4000BE2D12BF3E2422F582EE3401F583E4F03E
:104C500012F18812BF01440390BA0BF07846E2FFCC
:104C600008E290B60ACFF0A3EFF0D2229091C712DB
:104C7000BE1CE04490F08021C222801D90DE05E041
:104C800020E604C222801290DE06E020E40B12E649
:104C9000CE800678C0E254FEF2302232E490B8BBF7
:104CA000F0E554600B909E3E12BFBD4440F0800979
:104CB000909E3D12BFBD54BFF090BA23E020E007A4
:104CC00090BA2BE030E00790B87BE054FCF0221261
:104CD000F18890BE27E054FC440390BA0BF090B6E4
:104CE0000A7420F0A3748AF090B60E7420F0A374B6
:104CF0009CF0C215229091C7E06401F0D23CE0FD27
:104D0000248EF582E43493F583E04401F07B007A4D
:104D1000017F1412207F22F012FE3B9093BEE0FE32
:104D2000A3E0229093A6E0FFE4FD12BC68227E91EE
:104D30007FD07C9E7D007B0A12393A2212F1889046
:104D40009E3AE0FF12F9F722E04440F012E6CEC2AC
:104D5000222278D77401F2E408F290B82BE054785C
:104D600078D5F2C237C233C231E408F2E054077892
:104D700060F2E2FF700B78D5E264106004D23480F8
:104D800002C234C22BC22CC22D302817909227E0C9
:104D9000B50710909223E0FF7857E2B5070578D861
:104DA0007401F278D5E21205144E66004E73084E77
:104DB000F3104E09184E09204E15284E26304E3E4F
:104DC000384EDF404EEA484DF3504DF3584E566092
:104DD0004E56684DDD704DDD7800004EF57861E28D
:104DE0002404F2D23178D77405F2187401F2D23764
:104DF000024EF57861E22402F2D23178D77403F2E0
:104E0000187401F2D237024EF5D23178D67401F21D
:104E1000D237024EF578D67401F2D237D21D909374
:104E20009CE4F0024EF578D67401F2D23778D8E2DD
:104E30006002D22BD21D90939CE4F0024EF578D6FE
:104E40007401F2D23778D8E26002D22BD21D90934F
:104E50009CE4F0024EF57861E22402F278D6740107
:104E6000F2D237024EF578D8E27003024EF5D22D19
:104E7000024EF5D233908A85E0B406249091E1E0A9
:104E8000B4021DE4908A85F07F1612FDD9E490DD0E
:104E9000F7F090DDFD04F09091E5E030E102D226DC
:104EA000908A85E0B4041A90DE05E030E313E490C4
:104EB0008A85F090DE05F090DDFD04F07F1612FD8E
:104EC000D990DE4FE0B4010E908AA6E0FFA3E0780F
:104ED00053CFF208EFF278D8E2601AD22C8016781D
:104EE000D67401F2D231D237800B78D67401F2D267
:104EF000378002D237302B08909228E0700204F0FD
:104F000090B82BE030E70F851982851883A3A3A3FF
:104F1000E04410F0801B851982851883A3A3A3E0C9
:104F200054EFF0E5192444F582E5183401F583E4E3
:104F3000F0303403025799851982851883A3A3A3FF
:104F4000E0FF20E30302526B78D8E2600302526B69
:104F5000851982851883A3E0FE7860E26E60030203
:104F6000526B90B82AE020E00302526B85198285CB
:104F70001883A3A3A3EF54F7F0E5192465F582E5A0
:104F8000183401F583E0C39403401DE51924E8F5C6
:104F900082E43518F583E0600FE519249CFFE518DD
:104FA0003401FE7D0412FF30E519245DF582E51819
:104FB0003401F583E0B4010FE519245DF582E518AD
:104FC0003401F5837402F0E5192434F582E43518D0
:104FD000F583E020E20302513D7857E2F925E02411
:104FE00005F582E434DAF583E0FEA3E0F5828E83F2
:104FF000E064046003025136E925E02405F582E40B
:1050000034DAF583E0FEA3E0F5828E837408F012B3
:10501000201978D3EEF2FC08EFF2FD18E2FE08E268
:10502000FF2404F582E43EF5837405F07857E22509
:10503000E02405F582E434DAF583E0FAA3E02407FE
:10504000F582E43AF583E0FBEF2405F582E43EF5D2
:1050500083EBF07F03121FE67857E2FD75F0D0A4D2
:10506000248AF582E5F0348AF583ED2583F583E023
:1050700054FDF0E5192446F582E5183401F583E086
:10508000FF30E055E5192446F582E5183401F58333
:10509000EF54FEF0E519245FF582E5183401F5833D
:1050A000E030E110E5192446F582E5183401F58376
:1050B000E04402F0E519245FF582E5183401F58338
:1050C000E030E210E5192446F582E5183401F58355
:1050D000E04404F07F1C12FD0A7857E2FF25E0242B
:1050E00005F582E434DAF583E0FCA3E02408F582D8
:1050F000E43CF583E0FCA3E0FDEF25E02405F58228
:10510000E434DAF583ECF0A3EDF0E2FF25E02405CA
:10511000F582E434DAF583E0FCA3E04C601875F026
:10512000D0EFA4248AF582E5F0348AF583EF258355
:10513000F583E04401F090939AE054EFF0E51924F0
:1051400034F582E43518F583E06402600302526BA3
:105150007857E225E024A0F582E434D9F583E0FE17
:10516000A3E04E700302526B12201978D3EEF2FCCA
:1051700008EFF2FD18E2FE08E2FF2404F582E43EA7
:10518000F5837406F07857E2FBEF2405F582E43EE0
:10519000F583EBF07F03121FE67857E225E024A0A9
:1051A000F582E434D9F583E0FEA3E0F5828E83E056
:1051B00020E20302523712201978D3EEF208EFF200
:1051C00018E2FE08E2FF2404F582E43EF58374034E
:1051D000F07857E2FDEF2405F582E43EF583EDF02B
:1051E000ED25E024A0F582E434D9F583E0FEA3E0C8
:1051F0002405F582E43EF583E0FF78D3E2FC08E283
:10520000FD2406F582E43CF583EFF07857E225E0D3
:1052100024A0F582E434D9F583E0FEA3E02406F56A
:1052200082E43EF583E0FFED2407F582E43CF5835C
:10523000EFF07F06121FE6C2207857E225E024A097
:10524000F582E434D9F583E0FEA3E0FFF5828E8396
:10525000E054F0FDBD700690D9BE7406F08F828ECA
:10526000837408F090939AE054EFF09091E1E0B4E9
:10527000010C909390E0B40105909395E4F090DEDA
:105280004FE0541E60030253A52031030253979050
:10529000B82AE05402F553908A85E0B40211E5196A
:1052A0002444F582E5183401F5837401F0800FE59C
:1052B000192444F582E5183401F5837404F0E519E6
:1052C0002447F582E5183401F583E0541E601B780D
:1052D00057E2FF75F0D0A4248AF582E5F0348AF510
:1052E00083EF2583F583E04460F0E519241DF58202
:1052F000E43518F583E06553703BE519241EF5820B
:10530000E43518F583E0FF90B82FE054036F600791
:10531000909E1DE020E71E90DE4EE060030253A544
:10532000C23712FC67E519241AF582E43518F583B3
:105330007401F0807078D7E2D39401402290D9B6FE
:10534000E0601CC2317401F2C23712FC67E5192417
:105350001AF582E43518F583E4F07861F28046307E
:105360001A0790939AE04408F09091E1E06401708C
:1053700034909390E06402702C909224E064017069
:105380002490939AE04480F0851982851883A3A322
:10539000A3E04420F0800E78D8E2600990B82AE0BB
:1053A00030E002D22EE5192447F582E5183401F5E4
:1053B00083E0FF541E7003025525EF5414602685C8
:1053C0001982851883A3A37404F07857E2FF75F05F
:1053D000D0A4248AF582E5F0348AF583EF2583F59D
:1053E00083E04480F02031030254993026030254B4
:1053F00099E5192450F582E5183401F583E0FEA300
:10540000E0FF78D7E2FD7C00EF2DF554EC3EF5533C
:10541000E5192456F582E5183401F583E0FEA3E092
:10542000C39554EE955350579091E1E0B4011DE5BA
:105430005424FFFFE55334FFFEE5192456F582E5B9
:10544000183401F583EEF0A3EFF08013E51924562C
:10545000F582E5183401F583E553F0A3E554F0E552
:10546000192447F582E5183401F583E06408600FDC
:10547000E5192447F582E5183401F5837404F090AA
:10548000B82FE05403FFBF0310E5192449F582E566
:10549000183401F583E04440F0E5192449F582E52C
:1054A000183401F583E030E62030311D85198285FE
:1054B0001883A3A3A3E04420F0E5192449F582E56D
:1054C000183401F583E054BFF09091E1E06401707D
:1054D00054E5192449F582E5183401F583E0FF30DD
:1054E000E7237844E2B4101DE5192449F582E51854
:1054F0003401F583EF547FF0851982851883A3A3C7
:10550000A3E054DFF020311D851982851883A3A301
:10551000A3E0542F700FE519245BF582E5183401E0
:10552000F5837401F078D7E2D39401404B301A0D23
:10553000909224E0B4010690D9B2E070033039387B
:1055400012FC67E519241AF582E43518F583E4F0B6
:105550007861E204FF78D7E2FEC3EF9E7861F278CB
:10556000D77401F2C237301A0FE5192444F582E5E9
:10557000183401F583E004F0303914C239908A857B
:10558000E0640270030258A390BA2B7402F0222048
:105590001D1490BE0BE0FFE519242CF582E43518AC
:1055A000F583EFF0803D9091E1E064017035E519FD
:1055B00024C2F582E5183401F583E030E525E519CC
:1055C000242CF582E43518F583E0FF90BE2BE0C370
:1055D0009FD39450400D851982851883A3A3A3E01F
:1055E0004420F09091E1E0640170382031249093E0
:1055F00090E0601E909396E020E617909223E0C31F
:105600009402500EE5192444F582E5183401F5831F
:10561000E4F078D7E2D3940140030257991275342D
:10562000025799127FECE5192449F582E5183401F7
:10563000F583E0FF30E7237844E2B4101DE5192438
:1056400049F582E5183401F583EF547FF08519821E
:10565000851883A3A3A3E054DFF090DE4FE0541E2F
:10566000700302577678D6E2700302577690B82F0F
:10567000E05403FFBF030918E26418700302577671
:1056800090DE5FE0FF64107003025731EF6430700A
:105690000302573178D5E2FF131313541FF55390CB
:1056A000DE51EFF090B82FE0540390DE52F090B846
:1056B0002EE0541FFEA3E054F87803CEC313CE139C
:1056C000D8F9FF90DE57EEF0A3EFF0E553C3940452
:1056D000405F74FC2553F55390DE5FE0FF7028E5D2
:1056E0005325E0244EF582E43440F583E493FC74C2
:1056F0000193FDD390DE58E09D90DE57E09C403151
:10570000ECF0A3EDF0802AEFB42026E55325E02449
:1057100066F582E43440F583E493FE740193FFD38D
:1057200090DE58E09F90DE57E09E4005EEF0A3EF3C
:10573000F0A231E43390DE5AF090DE507402F09023
:10574000DE5BE070167E047FD090DE55EEF0A3EFB6
:10575000F090DE53EEF0A3EFF080147E087FCD9042
:10576000DE55EEF0A3EFF090DE53EEF0A3EFF090F5
:10577000DE5BE06401F0909390E0B4021C201D1900
:105780009093A3E004F0D39401400EE51924C3F5EF
:1057900082E5183401F583E4F090DE0CE030E02976
:1057A000A3E0FF7857E26F7020908A85E0B405028D
:1057B000E4F0E490DE0CF07F1412FDD9303C5DD2B1
:1057C00026784DE24440F28053908A85E06402706E
:1057D0004B90DE11E0FF7857E26F704090DE10E0F2
:1057E00030E339E4908A85F090DE10F07F1412FDEA
:1057F000D9784DE254EFF2785EE25408F290D9FE87
:10580000E0600B7829E2FBE4FD7F0D12209030264A
:105810000B7B007A017D027F1412207F12FF9C9087
:10582000BE09E0FFE519242AF582E43518F583EF77
:10583000F090BE0AE0FFE519242BF582E43518F557
:1058400083EFF012FF73E5192417F582E518340190
:10585000F583EFF0851982851883E030E60312E8BE
:105860009530313F909393E030E038E5192447F5C7
:1058700082E5183401F583E0702990B82FE05403D5
:1058800064016008909396E04404F022909399E0BC
:1058900004F0D39414400C909396E04404F0909359
:1058A00099E4F0228F55E478D7F278D9F2785274DF
:1058B00006F2E490D9B6F078DAF20804F22026066F
:1058C000203C03305709784BE2B401037402F2E440
:1058D00078D8F27859E22401FFE433FE78D8E2FD6B
:1058E000D39FEE6480F87480984003026158E555B8
:1058F000C394045008ED6555600302615078D8E206
:10590000FB75F0D0A42487F582E5F0348AF583EBAB
:105910002583AF82F5568F57F583E5822447F582BC
:10592000E5833401F583E0541F18F270030261200F
:1059300090BE17E04402F00000000090BE00E0FCC2
:10594000A3E0FDA3E0FEA3E0FF78011203FD78D5FC
:10595000EEF208EFF278D9E204F278D7E21460238D
:10596000147003025B2424FE7003025DBE24F470F5
:1059700003025FC62408600302612078DAE204F2C1
:10598000026120202606203C0330576790BE177422
:1059900001F0EBD39401401C90BE08E0FCA3E0FDB5
:1059A000A3E0FEA3E0FF78011203FD78D5EEF20834
:1059B000EFF2803F78D8E225E025E024B6F582E4D6
:1059C0003493F583E0FCA3E0FDA3E0FEA3E0FF90A9
:1059D000BE08E0F8A3E0F9A3E0FAA3E02FFFEA3E57
:1059E000FEE93DFDE83CFC78011203FD78D5EEF2BE
:1059F00008EFF2E5572458F582E5563401F583E0C7
:105A0000FEA3E0FF78D5E2FC08E2FDC3EF9DFFEEC8
:105A10009CCF24FFCF34FFFEE5572452F582E55694
:105A20003401F583EEF0A3EFF0E55724C1F582E5EC
:105A3000563401F583E0FFE5572458F582E55634E6
:105A400001F583E0FCA3E0C39FFFEC9400CF24FFAB
:105A5000CF34FFFEE5572458F582E5563401F5832F
:105A6000EEF0A3EFF0E5572447F582E5563401F553
:105A7000837402F078D8E2FD7829E2FB7F051220DA
:105A800090E55724C1F582E5563401F583E0FF78AF
:105A90004BE2F9FDEF2DFFE433FEE5572452F5828A
:105AA000E5563401F583E0FCA3E0D39FEC9E406A09
:105AB000E5572458F582E5563401F583E0FEA3E06E
:105AC000FF78D5E2FC08E2FDC3EF9DFFEE9CFEE906
:105AD000FDC3EF9DFFEE9400CF24FECF34FFFE7890
